{
  "contractName": "Election",
  "abi": [
    {
      "inputs": [],
      "payable": false,
      "stateMutability": "nonpayable",
      "type": "constructor"
    },
    {
      "anonymous": false,
      "inputs": [
        {
          "indexed": true,
          "internalType": "uint256",
          "name": "_candidateId",
          "type": "uint256"
        }
      ],
      "name": "votedEvent",
      "type": "event"
    },
    {
      "constant": true,
      "inputs": [
        {
          "internalType": "uint256",
          "name": "",
          "type": "uint256"
        }
      ],
      "name": "candidates",
      "outputs": [
        {
          "internalType": "uint256",
          "name": "id",
          "type": "uint256"
        },
        {
          "internalType": "string",
          "name": "name",
          "type": "string"
        },
        {
          "internalType": "uint256",
          "name": "voteCount",
          "type": "uint256"
        }
      ],
      "payable": false,
      "stateMutability": "view",
      "type": "function"
    },
    {
      "constant": true,
      "inputs": [],
      "name": "candidatesCount",
      "outputs": [
        {
          "internalType": "uint256",
          "name": "",
          "type": "uint256"
        }
      ],
      "payable": false,
      "stateMutability": "view",
      "type": "function"
    },
    {
      "constant": true,
      "inputs": [
        {
          "internalType": "address",
          "name": "",
          "type": "address"
        }
      ],
      "name": "voters",
      "outputs": [
        {
          "internalType": "bool",
          "name": "",
          "type": "bool"
        }
      ],
      "payable": false,
      "stateMutability": "view",
      "type": "function"
    },
    {
      "constant": false,
      "inputs": [
        {
          "internalType": "uint256",
          "name": "_candidateId",
          "type": "uint256"
        }
      ],
      "name": "vote",
      "outputs": [],
      "payable": false,
      "stateMutability": "nonpayable",
      "type": "function"
    }
  ],
  "bytecode": "0x608060405234801561001057600080fd5b506100556040518060400160405280600881526020017f416368696e7479610000000000000000000000000000000000000000000000008152506100e260201b60201c565b6100996040518060400160405280600581526020017f4b756d61720000000000000000000000000000000000000000000000000000008152506100e260201b60201c565b6100dd6040518060400160405280600881526020017f536174796179616e0000000000000000000000000000000000000000000000008152506100e260201b60201c565b610202565b600260008154809291906001019190505550604051806060016040528060025481526020018281526020016000815250600080600254815260200190815260200160002060008201518160000155602082015181600101908051906020019061014c92919061015d565b506040820151816002015590505050565b828054600181600116156101000203166002900490600052602060002090601f016020900481019282601f1061019e57805160ff19168380011785556101cc565b828001600101855582156101cc579182015b828111156101cb5782518255916020019190600101906101b0565b5b5090506101d991906101dd565b5090565b6101ff91905b808211156101fb5760008160009055506001016101e3565b5090565b90565b6103e9806102116000396000f3fe608060405234801561001057600080fd5b506004361061004c5760003560e01c80630121b93f146100515780632d35a8a21461007f5780633477ee2e1461009d578063a3ec138d14610152575b600080fd5b61007d6004803603602081101561006757600080fd5b81019080803590602001909291905050506101ae565b005b6100876102cc565b6040518082815260200191505060405180910390f35b6100c9600480360360208110156100b357600080fd5b81019080803590602001909291905050506102d2565b6040518084815260200180602001838152602001828103825284818151815260200191508051906020019080838360005b838110156101155780820151818401526020810190506100fa565b50505050905090810190601f1680156101425780820380516001836020036101000a031916815260200191505b5094505050505060405180910390f35b6101946004803603602081101561016857600080fd5b81019080803573ffffffffffffffffffffffffffffffffffffffff169060200190929190505050610394565b604051808215151515815260200191505060405180910390f35b600160003373ffffffffffffffffffffffffffffffffffffffff1673ffffffffffffffffffffffffffffffffffffffff16815260200190815260200160002060009054906101000a900460ff161561020557600080fd5b60008111801561021757506002548111155b61022057600080fd5b60018060003373ffffffffffffffffffffffffffffffffffffffff1673ffffffffffffffffffffffffffffffffffffffff16815260200190815260200160002060006101000a81548160ff02191690831515021790555060008082815260200190815260200160002060020160008154809291906001019190505550807ffff3c900d938d21d0990d786e819f29b8d05c1ef587b462b939609625b684b1660405160405180910390a250565b60025481565b6000602052806000526040600020600091509050806000015490806001018054600181600116156101000203166002900480601f0160208091040260200160405190810160405280929190818152602001828054600181600116156101000203166002900480156103845780601f1061035957610100808354040283529160200191610384565b820191906000526020600020905b81548152906001019060200180831161036757829003601f168201915b5050505050908060020154905083565b60016020528060005260406000206000915054906101000a900460ff168156fea265627a7a723158207098b0f2edc8c3aa96f97459659ed96caba7ac056145903951b6a5d3741945b964736f6c63430005100032",
  "source": "pragma solidity >=0.5.16;\n\ncontract Election {\n\n    //smoke test \n\n    //store candidate\n    //read candidate\n    // string public candidate; //declare state variable\n    //by declaring this var public we get getter function free by solidity and so we can use it in the terminal(truffle console) for smoke test.\n    //Constructor\n    // so constructor gonna run whenevr we deploy our smart contract on the blockchain network and so keep it public\n    //constructor() public {\n        //candidate is a state variable...going to be accessible inside our contract and going to represent data that belongs to our entire contract\n        //candidate = \"Candidate 1\";\n\n    //Model a candidate\n    struct Candidate {\n        // just declaring this struct wont actually give us candiadte..we would have to instantiate this struct and assign it to a variable before we can stick it in storage\n        uint id;\n        string name;\n        uint voteCount;\n    }\n    //Store Candidates\n    //Fetch Candidates\n    mapping(uint => Candidate) public candidates;\n    //like an associative array or a hash where we associate key value pairs with one another\n    //like here the key will be unsigned integer and this will correspond to candidates id and the value will be a candidate structure type\n    // like we saw in smoke test we can declare this mapping public and solidity will generate a getter (candidates) function for us that will allow us to fetch our candidates from this mapping\n    // a note that whenever we add a candidate to this mapping we are changing the state of our contract and writing to the blockchain\n\n    mapping(address => bool) public voters;\n    // store accounts that have voted\n    // so if we add the account address as key and set its value bool to true then we can say that this particular account has voted\n    // the account address not added as a key value in the mapping will have its bool value by default false\n\n    //Store candidate count\n    //i.e how many candidates we have created\n    uint public candidatesCount;\n    //in solidity theres no way to determine the size of this mapping and thers also no way to iterate over it either as even for the key we have not assigned value it will return default value here blank candidate\n    // so we are using this uint var to count ..i.e we will increament it by one whenever will add a candiadte and by this we can track the total no of candidates\n\n    event votedEvent (\n        uint indexed _candidateId\n    );\n    // voted event to get rid of that laodind screen when a vote has been casted and see the vote casted in real time\n    // so we will trigger this event any time a vote is casted\n\n    constructor() public {\n        // as we want our smart contract to handle the addition of candiadtes..so calling this function inside default constructor so that this function will get run whenever our contract is migrated and deployed\n        addCandidate(\"Achintya\");\n        addCandidate(\"Kumar\");\n        addCandidate(\"Satyayan\");\n    }\n    // function to add candidate\n    function addCandidate (string memory _name) private {\n\n        // name as an argument in the function is a local var not state var so wee intialized it with an underscore\n        // we made this function private so that it cant be accessible to public interface as then anyone can aad candidates to the election which will not be fair\n        // we want our smart contract to handle this\n\n        candidatesCount ++; // to keep track of total no of candidates \n        // as initially it should be 0 now 1 and so we can also use it as 1st candiadtes id as it will also be 1\n        // hence we are passing it in the mapping candidates as key \n        // we assigned value to that key as a new candidate(we instantiated a candidate of structure tye) with initially total vote count 0\n        candidates[candidatesCount] = Candidate(candidatesCount, _name, 0);\n    }\n\n    function vote (uint _candidateId) public {\n        // we want this to be a publicly visible function so that everyone connected to the blockchain network can give their vote\n        // but we dont want this function be called whenever by whoever..we will have to add some conditions\n\n        require(!voters[msg.sender]);\n        //1st condn definitely that the account address must not have voted before\n        // require that voter havent voted before....\n        // so in require func..it accepts some condn and if that condn evaluates to true(i.e we ned condn which gives output as bool value) then the rest of the below code will get executed else execution stopped for further codes\n        // so for the first time when an address tries to vote it gets added to mapping voters... so we will check that the address is not in our voters mapping in the condn in require function\n        // so we checking that by passing voters[msg.sender] which will return true if the adress is present in the mapping else return false...so we need false and then we use ! to make it true so that the further code gets exceuted as our condn satisfied\n\n        require(_candidateId > 0 && _candidateId <= candidatesCount);\n        //2nd condn check that we are voting for a valid candidate\n        // so this require function will evaluate to true only when both the condn is satisfied...and we can guarantee then that its a valid candiadte for sure\n        msg.sender; // this will fetch us that account who voted \n        //now in solidity when we are sending candidateid as the argument we are also sending some meta data and in that meta data there is the account no who had casted the vote or called the function\n\n        voters[msg.sender] = true;\n        // record that voter has voted...ie we are getting the account info who has votted and then passing it has key to voters mapping and settng its value to true so that we can identify and keep track that this particular account has voted and not allowed to vote again\n        candidates[_candidateId].voteCount ++;\n        // update candidate vote count...so what we are doing is that we are calling the mapping function candidates and indexing it with the candidateid we get as an argument in the function vote and then we fetch votecount from struct candidate for that particular candidateid and increase the vote count\n\n        //triggered event when vote is casted\n        emit votedEvent(_candidateId);\n    }\n    }",
  "sourcePath": "/Users/achintya/Downloads/election_blockchain/contracts/Election.sol",
  "compiler": {
    "name": "solc",
    "version": "0.5.16+commit.9c3226ce.Emscripten.clang"
  },
  "schemaVersion": "3.2.3",
  "updatedAt": "2021-07-18T20:15:32.341Z",
  "networkType": "ethereum",
  "devdoc": {
    "methods": {}
  },
  "userdoc": {
    "methods": {}
  }
}